{
  "_format": "hh-sol-artifact-1",
  "contractName": "Gravity",
  "sourceName": "contracts/Gravity.sol",
  "abi": [
    {
      "inputs": [
        {
          "internalType": "bytes32",
          "name": "_gravityId",
          "type": "bytes32"
        },
        {
          "internalType": "uint256",
          "name": "_powerThreshold",
          "type": "uint256"
        },
        {
          "internalType": "address[]",
          "name": "_validators",
          "type": "address[]"
        },
        {
          "internalType": "uint256[]",
          "name": "_powers",
          "type": "uint256[]"
        },
        {
          "internalType": "address",
          "name": "relayerAdmin",
          "type": "address"
        }
      ],
      "stateMutability": "nonpayable",
      "type": "constructor"
    },
    {
      "inputs": [],
      "name": "BatchTimedOut",
      "type": "error"
    },
    {
      "inputs": [],
      "name": "IncorrectCheckpoint",
      "type": "error"
    },
    {
      "inputs": [
        {
          "internalType": "uint256",
          "name": "cumulativePower",
          "type": "uint256"
        },
        {
          "internalType": "uint256",
          "name": "powerThreshold",
          "type": "uint256"
        }
      ],
      "name": "InsufficientPower",
      "type": "error"
    },
    {
      "inputs": [
        {
          "internalType": "uint256",
          "name": "newNonce",
          "type": "uint256"
        },
        {
          "internalType": "uint256",
          "name": "currentNonce",
          "type": "uint256"
        }
      ],
      "name": "InvalidBatchNonce",
      "type": "error"
    },
    {
      "inputs": [],
      "name": "InvalidLogicCallFees",
      "type": "error"
    },
    {
      "inputs": [
        {
          "internalType": "uint256",
          "name": "newNonce",
          "type": "uint256"
        },
        {
          "internalType": "uint256",
          "name": "currentNonce",
          "type": "uint256"
        }
      ],
      "name": "InvalidLogicCallNonce",
      "type": "error"
    },
    {
      "inputs": [],
      "name": "InvalidLogicCallTransfers",
      "type": "error"
    },
    {
      "inputs": [],
      "name": "InvalidSendToCosmos",
      "type": "error"
    },
    {
      "inputs": [],
      "name": "InvalidSignature",
      "type": "error"
    },
    {
      "inputs": [
        {
          "internalType": "uint256",
          "name": "newNonce",
          "type": "uint256"
        },
        {
          "internalType": "uint256",
          "name": "currentNonce",
          "type": "uint256"
        }
      ],
      "name": "InvalidValsetNonce",
      "type": "error"
    },
    {
      "inputs": [],
      "name": "LogicCallTimedOut",
      "type": "error"
    },
    {
      "inputs": [],
      "name": "MalformedBatch",
      "type": "error"
    },
    {
      "inputs": [],
      "name": "MalformedCurrentValidatorSet",
      "type": "error"
    },
    {
      "inputs": [],
      "name": "MalformedNewValidatorSet",
      "type": "error"
    },
    {
      "anonymous": false,
      "inputs": [
        {
          "indexed": false,
          "internalType": "bool",
          "name": "anyoneCanRelay",
          "type": "bool"
        }
      ],
      "name": "AnyoneCanRelay",
      "type": "event"
    },
    {
      "anonymous": false,
      "inputs": [
        {
          "indexed": false,
          "internalType": "string",
          "name": "_cosmosDenom",
          "type": "string"
        },
        {
          "indexed": true,
          "internalType": "address",
          "name": "_tokenContract",
          "type": "address"
        },
        {
          "indexed": false,
          "internalType": "string",
          "name": "_name",
          "type": "string"
        },
        {
          "indexed": false,
          "internalType": "string",
          "name": "_symbol",
          "type": "string"
        },
        {
          "indexed": false,
          "internalType": "uint8",
          "name": "_decimals",
          "type": "uint8"
        },
        {
          "indexed": false,
          "internalType": "uint256",
          "name": "_eventNonce",
          "type": "uint256"
        }
      ],
      "name": "ERC20DeployedEvent",
      "type": "event"
    },
    {
      "anonymous": false,
      "inputs": [
        {
          "indexed": false,
          "internalType": "bytes32",
          "name": "_invalidationId",
          "type": "bytes32"
        },
        {
          "indexed": false,
          "internalType": "uint256",
          "name": "_invalidationNonce",
          "type": "uint256"
        },
        {
          "indexed": false,
          "internalType": "bytes",
          "name": "_returnData",
          "type": "bytes"
        },
        {
          "indexed": false,
          "internalType": "uint256",
          "name": "_eventNonce",
          "type": "uint256"
        }
      ],
      "name": "LogicCallEvent",
      "type": "event"
    },
    {
      "anonymous": false,
      "inputs": [
        {
          "indexed": false,
          "internalType": "bool",
          "name": "migration",
          "type": "bool"
        }
      ],
      "name": "Migration",
      "type": "event"
    },
    {
      "anonymous": false,
      "inputs": [
        {
          "indexed": true,
          "internalType": "address",
          "name": "previousOwner",
          "type": "address"
        },
        {
          "indexed": true,
          "internalType": "address",
          "name": "newOwner",
          "type": "address"
        }
      ],
      "name": "OwnershipTransferred",
      "type": "event"
    },
    {
      "anonymous": false,
      "inputs": [
        {
          "indexed": false,
          "internalType": "address",
          "name": "account",
          "type": "address"
        }
      ],
      "name": "Paused",
      "type": "event"
    },
    {
      "anonymous": false,
      "inputs": [
        {
          "indexed": true,
          "internalType": "bytes32",
          "name": "role",
          "type": "bytes32"
        },
        {
          "indexed": true,
          "internalType": "bytes32",
          "name": "previousAdminRole",
          "type": "bytes32"
        },
        {
          "indexed": true,
          "internalType": "bytes32",
          "name": "newAdminRole",
          "type": "bytes32"
        }
      ],
      "name": "RoleAdminChanged",
      "type": "event"
    },
    {
      "anonymous": false,
      "inputs": [
        {
          "indexed": true,
          "internalType": "bytes32",
          "name": "role",
          "type": "bytes32"
        },
        {
          "indexed": true,
          "internalType": "address",
          "name": "account",
          "type": "address"
        },
        {
          "indexed": true,
          "internalType": "address",
          "name": "sender",
          "type": "address"
        }
      ],
      "name": "RoleGranted",
      "type": "event"
    },
    {
      "anonymous": false,
      "inputs": [
        {
          "indexed": true,
          "internalType": "bytes32",
          "name": "role",
          "type": "bytes32"
        },
        {
          "indexed": true,
          "internalType": "address",
          "name": "account",
          "type": "address"
        },
        {
          "indexed": true,
          "internalType": "address",
          "name": "sender",
          "type": "address"
        }
      ],
      "name": "RoleRevoked",
      "type": "event"
    },
    {
      "anonymous": false,
      "inputs": [
        {
          "indexed": true,
          "internalType": "address",
          "name": "_tokenContract",
          "type": "address"
        },
        {
          "indexed": true,
          "internalType": "address",
          "name": "_sender",
          "type": "address"
        },
        {
          "indexed": true,
          "internalType": "bytes32",
          "name": "_destination",
          "type": "bytes32"
        },
        {
          "indexed": false,
          "internalType": "uint256",
          "name": "_amount",
          "type": "uint256"
        },
        {
          "indexed": false,
          "internalType": "uint256",
          "name": "_eventNonce",
          "type": "uint256"
        }
      ],
      "name": "SendToCosmosEvent",
      "type": "event"
    },
    {
      "anonymous": false,
      "inputs": [
        {
          "indexed": true,
          "internalType": "uint256",
          "name": "_batchNonce",
          "type": "uint256"
        },
        {
          "indexed": true,
          "internalType": "address",
          "name": "_token",
          "type": "address"
        },
        {
          "indexed": false,
          "internalType": "uint256",
          "name": "_eventNonce",
          "type": "uint256"
        }
      ],
      "name": "TransactionBatchExecutedEvent",
      "type": "event"
    },
    {
      "anonymous": false,
      "inputs": [
        {
          "indexed": false,
          "internalType": "address",
          "name": "account",
          "type": "address"
        }
      ],
      "name": "Unpaused",
      "type": "event"
    },
    {
      "anonymous": false,
      "inputs": [
        {
          "indexed": true,
          "internalType": "uint256",
          "name": "_newValsetNonce",
          "type": "uint256"
        },
        {
          "indexed": false,
          "internalType": "uint256",
          "name": "_eventNonce",
          "type": "uint256"
        },
        {
          "indexed": false,
          "internalType": "uint256",
          "name": "_rewardAmount",
          "type": "uint256"
        },
        {
          "indexed": false,
          "internalType": "address",
          "name": "_rewardToken",
          "type": "address"
        },
        {
          "indexed": false,
          "internalType": "address[]",
          "name": "_validators",
          "type": "address[]"
        },
        {
          "indexed": false,
          "internalType": "uint256[]",
          "name": "_powers",
          "type": "uint256[]"
        }
      ],
      "name": "ValsetUpdatedEvent",
      "type": "event"
    },
    {
      "inputs": [],
      "name": "DEFAULT_ADMIN_ROLE",
      "outputs": [
        {
          "internalType": "bytes32",
          "name": "",
          "type": "bytes32"
        }
      ],
      "stateMutability": "view",
      "type": "function"
    },
    {
      "inputs": [],
      "name": "MIGRATION_PERIOD",
      "outputs": [
        {
          "internalType": "uint256",
          "name": "",
          "type": "uint256"
        }
      ],
      "stateMutability": "view",
      "type": "function"
    },
    {
      "inputs": [],
      "name": "RELAYER",
      "outputs": [
        {
          "internalType": "bytes32",
          "name": "",
          "type": "bytes32"
        }
      ],
      "stateMutability": "view",
      "type": "function"
    },
    {
      "inputs": [],
      "name": "RELAYER_ADMIN",
      "outputs": [
        {
          "internalType": "bytes32",
          "name": "",
          "type": "bytes32"
        }
      ],
      "stateMutability": "view",
      "type": "function"
    },
    {
      "inputs": [],
      "name": "anyoneCanRelay",
      "outputs": [
        {
          "internalType": "bool",
          "name": "",
          "type": "bool"
        }
      ],
      "stateMutability": "view",
      "type": "function"
    },
    {
      "inputs": [
        {
          "internalType": "string",
          "name": "_cosmosDenom",
          "type": "string"
        },
        {
          "internalType": "string",
          "name": "_name",
          "type": "string"
        },
        {
          "internalType": "string",
          "name": "_symbol",
          "type": "string"
        },
        {
          "internalType": "uint8",
          "name": "_decimals",
          "type": "uint8"
        }
      ],
      "name": "deployERC20",
      "outputs": [],
      "stateMutability": "nonpayable",
      "type": "function"
    },
    {
      "inputs": [
        {
          "internalType": "bytes32",
          "name": "role",
          "type": "bytes32"
        }
      ],
      "name": "getRoleAdmin",
      "outputs": [
        {
          "internalType": "bytes32",
          "name": "",
          "type": "bytes32"
        }
      ],
      "stateMutability": "view",
      "type": "function"
    },
    {
      "inputs": [
        {
          "internalType": "bytes32",
          "name": "role",
          "type": "bytes32"
        },
        {
          "internalType": "address",
          "name": "account",
          "type": "address"
        }
      ],
      "name": "grantRole",
      "outputs": [],
      "stateMutability": "nonpayable",
      "type": "function"
    },
    {
      "inputs": [
        {
          "internalType": "bytes32",
          "name": "role",
          "type": "bytes32"
        },
        {
          "internalType": "address",
          "name": "account",
          "type": "address"
        }
      ],
      "name": "hasRole",
      "outputs": [
        {
          "internalType": "bool",
          "name": "",
          "type": "bool"
        }
      ],
      "stateMutability": "view",
      "type": "function"
    },
    {
      "inputs": [
        {
          "internalType": "address",
          "name": "_erc20Address",
          "type": "address"
        }
      ],
      "name": "lastBatchNonce",
      "outputs": [
        {
          "internalType": "uint256",
          "name": "",
          "type": "uint256"
        }
      ],
      "stateMutability": "view",
      "type": "function"
    },
    {
      "inputs": [
        {
          "internalType": "bytes32",
          "name": "_invalidation_id",
          "type": "bytes32"
        }
      ],
      "name": "lastLogicCallNonce",
      "outputs": [
        {
          "internalType": "uint256",
          "name": "",
          "type": "uint256"
        }
      ],
      "stateMutability": "view",
      "type": "function"
    },
    {
      "inputs": [
        {
          "internalType": "address",
          "name": "_tokenContract",
          "type": "address"
        },
        {
          "internalType": "address",
          "name": "_newGravityAddress",
          "type": "address"
        },
        {
          "internalType": "uint256",
          "name": "_amount",
          "type": "uint256"
        },
        {
          "internalType": "bool",
          "name": "isCosmosToken",
          "type": "bool"
        }
      ],
      "name": "migrateToken",
      "outputs": [],
      "stateMutability": "nonpayable",
      "type": "function"
    },
    {
      "inputs": [],
      "name": "migration",
      "outputs": [
        {
          "internalType": "bool",
          "name": "",
          "type": "bool"
        }
      ],
      "stateMutability": "view",
      "type": "function"
    },
    {
      "inputs": [],
      "name": "migrationHeight",
      "outputs": [
        {
          "internalType": "uint256",
          "name": "",
          "type": "uint256"
        }
      ],
      "stateMutability": "view",
      "type": "function"
    },
    {
      "inputs": [],
      "name": "owner",
      "outputs": [
        {
          "internalType": "address",
          "name": "",
          "type": "address"
        }
      ],
      "stateMutability": "view",
      "type": "function"
    },
    {
      "inputs": [],
      "name": "pause",
      "outputs": [],
      "stateMutability": "nonpayable",
      "type": "function"
    },
    {
      "inputs": [],
      "name": "paused",
      "outputs": [
        {
          "internalType": "bool",
          "name": "",
          "type": "bool"
        }
      ],
      "stateMutability": "view",
      "type": "function"
    },
    {
      "inputs": [
        {
          "internalType": "uint256",
          "name": "_nonce",
          "type": "uint256"
        },
        {
          "internalType": "address",
          "name": "_newDestination",
          "type": "address"
        }
      ],
      "name": "redeemVoucher",
      "outputs": [],
      "stateMutability": "nonpayable",
      "type": "function"
    },
    {
      "inputs": [],
      "name": "renounceOwnership",
      "outputs": [],
      "stateMutability": "nonpayable",
      "type": "function"
    },
    {
      "inputs": [
        {
          "internalType": "bytes32",
          "name": "role",
          "type": "bytes32"
        },
        {
          "internalType": "address",
          "name": "account",
          "type": "address"
        }
      ],
      "name": "renounceRole",
      "outputs": [],
      "stateMutability": "nonpayable",
      "type": "function"
    },
    {
      "inputs": [
        {
          "internalType": "bytes32",
          "name": "role",
          "type": "bytes32"
        },
        {
          "internalType": "address",
          "name": "account",
          "type": "address"
        }
      ],
      "name": "revokeRole",
      "outputs": [],
      "stateMutability": "nonpayable",
      "type": "function"
    },
    {
      "inputs": [
        {
          "internalType": "address",
          "name": "token",
          "type": "address"
        },
        {
          "internalType": "address",
          "name": "to",
          "type": "address"
        },
        {
          "internalType": "uint256",
          "name": "value",
          "type": "uint256"
        }
      ],
      "name": "safeTransferSelf",
      "outputs": [],
      "stateMutability": "nonpayable",
      "type": "function"
    },
    {
      "inputs": [
        {
          "internalType": "address",
          "name": "_tokenContract",
          "type": "address"
        },
        {
          "internalType": "bytes32",
          "name": "_destination",
          "type": "bytes32"
        },
        {
          "internalType": "uint256",
          "name": "_amount",
          "type": "uint256"
        }
      ],
      "name": "sendToCosmos",
      "outputs": [],
      "stateMutability": "nonpayable",
      "type": "function"
    },
    {
      "inputs": [
        {
          "internalType": "address",
          "name": "_tokenContract",
          "type": "address"
        },
        {
          "internalType": "address",
          "name": "_destination",
          "type": "address"
        },
        {
          "internalType": "uint256",
          "name": "_amount",
          "type": "uint256"
        }
      ],
      "name": "sendToCronos",
      "outputs": [],
      "stateMutability": "nonpayable",
      "type": "function"
    },
    {
      "inputs": [
        {
          "internalType": "bool",
          "name": "_anyoneCanRelay",
          "type": "bool"
        }
      ],
      "name": "setAnyoneCanRelay",
      "outputs": [],
      "stateMutability": "nonpayable",
      "type": "function"
    },
    {
      "inputs": [],
      "name": "startMigration",
      "outputs": [],
      "stateMutability": "nonpayable",
      "type": "function"
    },
    {
      "inputs": [
        {
          "internalType": "uint256",
          "name": "",
          "type": "uint256"
        }
      ],
      "name": "state_RevertedVouchers",
      "outputs": [
        {
          "internalType": "address",
          "name": "tokenContract",
          "type": "address"
        },
        {
          "internalType": "address",
          "name": "destination",
          "type": "address"
        },
        {
          "internalType": "uint256",
          "name": "amount",
          "type": "uint256"
        }
      ],
      "stateMutability": "view",
      "type": "function"
    },
    {
      "inputs": [],
      "name": "state_gravityId",
      "outputs": [
        {
          "internalType": "bytes32",
          "name": "",
          "type": "bytes32"
        }
      ],
      "stateMutability": "view",
      "type": "function"
    },
    {
      "inputs": [
        {
          "internalType": "bytes32",
          "name": "",
          "type": "bytes32"
        }
      ],
      "name": "state_invalidationMapping",
      "outputs": [
        {
          "internalType": "uint256",
          "name": "",
          "type": "uint256"
        }
      ],
      "stateMutability": "view",
      "type": "function"
    },
    {
      "inputs": [
        {
          "internalType": "address",
          "name": "",
          "type": "address"
        }
      ],
      "name": "state_lastBatchNonces",
      "outputs": [
        {
          "internalType": "uint256",
          "name": "",
          "type": "uint256"
        }
      ],
      "stateMutability": "view",
      "type": "function"
    },
    {
      "inputs": [],
      "name": "state_lastEventNonce",
      "outputs": [
        {
          "internalType": "uint256",
          "name": "",
          "type": "uint256"
        }
      ],
      "stateMutability": "view",
      "type": "function"
    },
    {
      "inputs": [],
      "name": "state_lastRevertedNonce",
      "outputs": [
        {
          "internalType": "uint256",
          "name": "",
          "type": "uint256"
        }
      ],
      "stateMutability": "view",
      "type": "function"
    },
    {
      "inputs": [],
      "name": "state_lastValsetCheckpoint",
      "outputs": [
        {
          "internalType": "bytes32",
          "name": "",
          "type": "bytes32"
        }
      ],
      "stateMutability": "view",
      "type": "function"
    },
    {
      "inputs": [],
      "name": "state_lastValsetNonce",
      "outputs": [
        {
          "internalType": "uint256",
          "name": "",
          "type": "uint256"
        }
      ],
      "stateMutability": "view",
      "type": "function"
    },
    {
      "inputs": [],
      "name": "state_powerThreshold",
      "outputs": [
        {
          "internalType": "uint256",
          "name": "",
          "type": "uint256"
        }
      ],
      "stateMutability": "view",
      "type": "function"
    },
    {
      "inputs": [],
      "name": "stopMigration",
      "outputs": [],
      "stateMutability": "nonpayable",
      "type": "function"
    },
    {
      "inputs": [
        {
          "components": [
            {
              "internalType": "address[]",
              "name": "validators",
              "type": "address[]"
            },
            {
              "internalType": "uint256[]",
              "name": "powers",
              "type": "uint256[]"
            },
            {
              "internalType": "uint256",
              "name": "valsetNonce",
              "type": "uint256"
            },
            {
              "internalType": "uint256",
              "name": "rewardAmount",
              "type": "uint256"
            },
            {
              "internalType": "address",
              "name": "rewardToken",
              "type": "address"
            }
          ],
          "internalType": "struct ValsetArgs",
          "name": "_currentValset",
          "type": "tuple"
        },
        {
          "components": [
            {
              "internalType": "uint8",
              "name": "v",
              "type": "uint8"
            },
            {
              "internalType": "bytes32",
              "name": "r",
              "type": "bytes32"
            },
            {
              "internalType": "bytes32",
              "name": "s",
              "type": "bytes32"
            }
          ],
          "internalType": "struct ValSignature[]",
          "name": "_sigs",
          "type": "tuple[]"
        },
        {
          "components": [
            {
              "internalType": "uint256[]",
              "name": "amounts",
              "type": "uint256[]"
            },
            {
              "internalType": "address[]",
              "name": "destinations",
              "type": "address[]"
            },
            {
              "internalType": "uint256[]",
              "name": "fees",
              "type": "uint256[]"
            },
            {
              "internalType": "address",
              "name": "feePaymentAddress",
              "type": "address"
            }
          ],
          "internalType": "struct PaymentArgs",
          "name": "_payments",
          "type": "tuple"
        },
        {
          "internalType": "uint256",
          "name": "_batchNonce",
          "type": "uint256"
        },
        {
          "internalType": "address",
          "name": "_tokenContract",
          "type": "address"
        },
        {
          "internalType": "uint256",
          "name": "_batchTimeout",
          "type": "uint256"
        }
      ],
      "name": "submitBatch",
      "outputs": [],
      "stateMutability": "nonpayable",
      "type": "function"
    },
    {
      "inputs": [
        {
          "components": [
            {
              "internalType": "address[]",
              "name": "validators",
              "type": "address[]"
            },
            {
              "internalType": "uint256[]",
              "name": "powers",
              "type": "uint256[]"
            },
            {
              "internalType": "uint256",
              "name": "valsetNonce",
              "type": "uint256"
            },
            {
              "internalType": "uint256",
              "name": "rewardAmount",
              "type": "uint256"
            },
            {
              "internalType": "address",
              "name": "rewardToken",
              "type": "address"
            }
          ],
          "internalType": "struct ValsetArgs",
          "name": "_currentValset",
          "type": "tuple"
        },
        {
          "components": [
            {
              "internalType": "uint8",
              "name": "v",
              "type": "uint8"
            },
            {
              "internalType": "bytes32",
              "name": "r",
              "type": "bytes32"
            },
            {
              "internalType": "bytes32",
              "name": "s",
              "type": "bytes32"
            }
          ],
          "internalType": "struct ValSignature[]",
          "name": "_sigs",
          "type": "tuple[]"
        },
        {
          "internalType": "address",
          "name": "_paymentAddress",
          "type": "address"
        },
        {
          "components": [
            {
              "internalType": "uint256[]",
              "name": "transferAmounts",
              "type": "uint256[]"
            },
            {
              "internalType": "address[]",
              "name": "transferTokenContracts",
              "type": "address[]"
            },
            {
              "internalType": "uint256[]",
              "name": "feeAmounts",
              "type": "uint256[]"
            },
            {
              "internalType": "address[]",
              "name": "feeTokenContracts",
              "type": "address[]"
            },
            {
              "internalType": "address",
              "name": "logicContractAddress",
              "type": "address"
            },
            {
              "internalType": "bytes",
              "name": "payload",
              "type": "bytes"
            },
            {
              "internalType": "uint256",
              "name": "timeOut",
              "type": "uint256"
            },
            {
              "internalType": "bytes32",
              "name": "invalidationId",
              "type": "bytes32"
            },
            {
              "internalType": "uint256",
              "name": "invalidationNonce",
              "type": "uint256"
            }
          ],
          "internalType": "struct LogicCallArgs",
          "name": "_args",
          "type": "tuple"
        }
      ],
      "name": "submitLogicCall",
      "outputs": [],
      "stateMutability": "nonpayable",
      "type": "function"
    },
    {
      "inputs": [
        {
          "internalType": "bytes4",
          "name": "interfaceId",
          "type": "bytes4"
        }
      ],
      "name": "supportsInterface",
      "outputs": [
        {
          "internalType": "bool",
          "name": "",
          "type": "bool"
        }
      ],
      "stateMutability": "view",
      "type": "function"
    },
    {
      "inputs": [
        {
          "components": [
            {
              "internalType": "address[]",
              "name": "validators",
              "type": "address[]"
            },
            {
              "internalType": "uint256[]",
              "name": "powers",
              "type": "uint256[]"
            },
            {
              "internalType": "uint256",
              "name": "valsetNonce",
              "type": "uint256"
            },
            {
              "internalType": "uint256",
              "name": "rewardAmount",
              "type": "uint256"
            },
            {
              "internalType": "address",
              "name": "rewardToken",
              "type": "address"
            }
          ],
          "internalType": "struct ValsetArgs",
          "name": "_currentValset",
          "type": "tuple"
        },
        {
          "components": [
            {
              "internalType": "uint8",
              "name": "v",
              "type": "uint8"
            },
            {
              "internalType": "bytes32",
              "name": "r",
              "type": "bytes32"
            },
            {
              "internalType": "bytes32",
              "name": "s",
              "type": "bytes32"
            }
          ],
          "internalType": "struct ValSignature[]",
          "name": "_sigs",
          "type": "tuple[]"
        },
        {
          "internalType": "bytes32",
          "name": "_theHash",
          "type": "bytes32"
        },
        {
          "internalType": "uint256",
          "name": "_powerThreshold",
          "type": "uint256"
        }
      ],
      "name": "testCheckValidatorSignatures",
      "outputs": [],
      "stateMutability": "pure",
      "type": "function"
    },
    {
      "inputs": [
        {
          "components": [
            {
              "internalType": "address[]",
              "name": "validators",
              "type": "address[]"
            },
            {
              "internalType": "uint256[]",
              "name": "powers",
              "type": "uint256[]"
            },
            {
              "internalType": "uint256",
              "name": "valsetNonce",
              "type": "uint256"
            },
            {
              "internalType": "uint256",
              "name": "rewardAmount",
              "type": "uint256"
            },
            {
              "internalType": "address",
              "name": "rewardToken",
              "type": "address"
            }
          ],
          "internalType": "struct ValsetArgs",
          "name": "_valsetArgs",
          "type": "tuple"
        },
        {
          "internalType": "bytes32",
          "name": "_gravityId",
          "type": "bytes32"
        }
      ],
      "name": "testMakeCheckpoint",
      "outputs": [],
      "stateMutability": "pure",
      "type": "function"
    },
    {
      "inputs": [
        {
          "internalType": "address",
          "name": "newOwner",
          "type": "address"
        }
      ],
      "name": "transferOwnership",
      "outputs": [],
      "stateMutability": "nonpayable",
      "type": "function"
    },
    {
      "inputs": [
        {
          "internalType": "address",
          "name": "_newAdmin",
          "type": "address"
        }
      ],
      "name": "transferRelayerAdmin",
      "outputs": [],
      "stateMutability": "nonpayable",
      "type": "function"
    },
    {
      "inputs": [],
      "name": "unpause",
      "outputs": [],
      "stateMutability": "nonpayable",
      "type": "function"
    },
    {
      "inputs": [
        {
          "components": [
            {
              "internalType": "address[]",
              "name": "validators",
              "type": "address[]"
            },
            {
              "internalType": "uint256[]",
              "name": "powers",
              "type": "uint256[]"
            },
            {
              "internalType": "uint256",
              "name": "valsetNonce",
              "type": "uint256"
            },
            {
              "internalType": "uint256",
              "name": "rewardAmount",
              "type": "uint256"
            },
            {
              "internalType": "address",
              "name": "rewardToken",
              "type": "address"
            }
          ],
          "internalType": "struct ValsetArgs",
          "name": "_newValset",
          "type": "tuple"
        },
        {
          "components": [
            {
              "internalType": "address[]",
              "name": "validators",
              "type": "address[]"
            },
            {
              "internalType": "uint256[]",
              "name": "powers",
              "type": "uint256[]"
            },
            {
              "internalType": "uint256",
              "name": "valsetNonce",
              "type": "uint256"
            },
            {
              "internalType": "uint256",
              "name": "rewardAmount",
              "type": "uint256"
            },
            {
              "internalType": "address",
              "name": "rewardToken",
              "type": "address"
            }
          ],
          "internalType": "struct ValsetArgs",
          "name": "_currentValset",
          "type": "tuple"
        },
        {
          "components": [
            {
              "internalType": "uint8",
              "name": "v",
              "type": "uint8"
            },
            {
              "internalType": "bytes32",
              "name": "r",
              "type": "bytes32"
            },
            {
              "internalType": "bytes32",
              "name": "s",
              "type": "bytes32"
            }
          ],
          "internalType": "struct ValSignature[]",
          "name": "_sigs",
          "type": "tuple[]"
        }
      ],
      "name": "updateValset",
      "outputs": [],
      "stateMutability": "nonpayable",
      "type": "function"
    }
  ],
  "bytecode": "0x60a0604052600060065560016007556001600c553480156200002057600080fd5b50604051620053b7380380620053b7833981016040819052620000439162000502565b60016000556002805460ff191690556200005d3362000258565b8151835114620000805760405163c6617b7b60e01b815260040160405180910390fd5b6000805b8351811015620000de57838181518110620000a357620000a3620005fa565b602002602001015182620000b8919062000626565b915085821115620000c957620000de565b80620000d58162000641565b91505062000084565b508481116200010d5760405162bfb6ab60e01b8152600481018290526024810186905260440160405180910390fd5b620001496040518060a001604052806060815260200160608152602001600081526020016000815260200160006001600160a01b031681525090565b506040805160a081018252858152602081018590526000918101829052606081018290526080810182905290620001818289620002b2565b6080899052600888905560038190559050620001ad60008051602062005397833981519152856200031e565b620001e87fab4f864e5201b0fde9b5ee3e4cf96384802b0ffdfcf7f9de4699ce21a30afc4f600080516020620053978339815191526200032e565b6200020360008051602062005397833981519152806200032e565b6006547f76d08978c024a4bf8cbb30c67fd78fcaa1827cbc533e4e175f36d07e64ccf96a6007546000808a8a60405162000242959493929190620006d7565b60405180910390a2505050505050505062000786565b600280546001600160a01b03838116610100818102610100600160a81b031985161790945560405193909204169182907f8be0079c531659141344cd1fd0a4f28419497f9722a3daafe3b4186f6b6457e090600090a35050565b6000806918da1958dadc1bda5b9d60b21b60001b90506000838286604001518760000151886020015189606001518a60800151604051602001620002fd979695949392919062000726565b60408051808303601f19018152919052805160209091012095945050505050565b6200032a82826200037b565b5050565b6000828152600160208190526040808320909101805490849055905190918391839186917fbd79b86ffe0ab8e8776151514217cd7cacd52c909f66475c3af44e129f0b00ff9190a4505050565b60008281526001602090815260408083206001600160a01b038516845290915290205460ff166200032a5760008281526001602081815260408084206001600160a01b0386168086529252808420805460ff19169093179092559051339285917f2f8788117e7eff1d82e926ec794901d17c78024a50270940304540a733656f0d9190a45050565b634e487b7160e01b600052604160045260246000fd5b604051601f8201601f191681016001600160401b038111828210171562000444576200044462000403565b604052919050565b60006001600160401b0382111562000468576200046862000403565b5060051b60200190565b80516001600160a01b03811681146200048a57600080fd5b919050565b600082601f830112620004a157600080fd5b81516020620004ba620004b4836200044c565b62000419565b82815260059290921b84018101918181019086841115620004da57600080fd5b8286015b84811015620004f75780518352918301918301620004de565b509695505050505050565b600080600080600060a086880312156200051b57600080fd5b855160208088015160408901519297509550906001600160401b03808211156200054457600080fd5b818901915089601f8301126200055957600080fd5b81516200056a620004b4826200044c565b81815260059190911b8301840190848101908c8311156200058a57600080fd5b938501935b82851015620005b357620005a38562000472565b825293850193908501906200058f565b60608c01519098509450505080831115620005cd57600080fd5b5050620005dd888289016200048f565b925050620005ee6080870162000472565b90509295509295909350565b634e487b7160e01b600052603260045260246000fd5b634e487b7160e01b600052601160045260246000fd5b600082198211156200063c576200063c62000610565b500190565b600060001982141562000658576200065862000610565b5060010190565b600081518084526020808501945080840160005b838110156200069a5781516001600160a01b03168752958201959082019060010162000673565b509495945050505050565b600081518084526020808501945080840160005b838110156200069a57815187529582019590820190600101620006b9565b85815284602082015260018060a01b038416604082015260a0606082015260006200070660a08301856200065f565b82810360808401526200071a8185620006a5565b98975050505050505050565b87815286602082015285604082015260e0606082015260006200074d60e08301876200065f565b8281036080840152620007618187620006a5565b60a084019590955250506001600160a01b039190911660c09091015295945050505050565b608051614be0620007b7600039600081816105dc01528181610c5401528181610cef01526119060152614be06000f3fe60806040523480156200001157600080fd5b5060043610620002b45760003560e01c806373b205471162000179578063bdda81d411620000df578063e5a2b5d21162000092578063e5a2b5d2146200067c578063f09287741462000686578063f16d67cc146200069d578063f2b5330714620006a7578063f2fde38b14620006b1578063f795563714620006c857600080fd5b8063bdda81d414620005d6578063c9d194d514620005fe578063d3e395571462000621578063d547741f1462000638578063df97174b146200064f578063e19a7bc8146200067257600080fd5b80638da5cb5b11620001385780638da5cb5b146200055457806391d14854146200057e578063a217fddf1462000595578063a97ccfd3146200059e578063aca6b1c114620005b5578063b56561fe14620005cc57600080fd5b806373b2054714620004a05780637d55180b14620004aa5780637dfb6f86146200051057806382e2cfbe14620005335780638456cb59146200054a57600080fd5b806328b7c7f0116200021f5780633c03271211620001de5780633c03271214620004515780633f4ba83a146200045f57806353c5060c14620004695780635c975abb146200048057806360969e86146200048c578063715018a6146200049657600080fd5b806328b7c7f014620003eb5780632f2ff15d14620003f557806333cbf59d146200040c57806336568abe146200042357806338040a33146200043a57600080fd5b806318264f33116200027857806318264f33146200035e5780631ffbe7f914620003685780632140db05146200037f5780632452fb4014620003965780632483e71514620003ad578063248a9ca314620003c457600080fd5b806290115314620002b95780630103152514620002d2578063011b217414620002e957806301ffc9a714620003285780631705a3bd1462000350575b600080fd5b620002d0620002ca36600462002c91565b620006df565b005b620002d0620002e336600462002d12565b620006f5565b62000315620002fa36600462002d77565b6001600160a01b031660009081526004602052604090205490565b6040519081526020015b60405180910390f35b6200033f6200033936600462002d95565b62000710565b60405190151581526020016200031f565b6009546200033f9060ff1681565b620002d062000748565b620002d06200037936600462002dc1565b620007db565b620002d06200039036600462002df7565b6200084a565b620002d0620003a736600462002e47565b620008b1565b6200031560008051602062004b8b83398151915281565b62000315620003d536600462002e67565b6000908152600160208190526040909120015490565b6200031561546081565b620002d06200040636600462002e81565b6200091b565b620002d06200041d36600462002e81565b62000946565b620002d06200043436600462002e81565b62000ab1565b620002d06200044b3660046200309f565b62000b33565b600d546200033f9060ff1681565b620002d062000f1a565b620002d06200047a36600462002df7565b62000f59565b60025460ff166200033f565b62000315600a5481565b620002d062000fc7565b6200031560075481565b620004e9620004bb36600462002e67565b600b602052600090815260409020805460018201546002909201546001600160a01b03918216929091169083565b604080516001600160a01b039485168152939092166020840152908201526060016200031f565b620003156200052136600462002e67565b60056020526000908152604090205481565b620002d06200054436600462002d77565b62001006565b620002d062001058565b60025461010090046001600160a01b03166040516001600160a01b0390911681526020016200031f565b6200033f6200058f36600462002e81565b62001095565b62000315600081565b6200031560008051602062004b6b83398151915281565b620002d0620005c636600462003251565b620010c0565b6200031560065481565b620003157f000000000000000000000000000000000000000000000000000000000000000081565b620003156200060f36600462002e67565b60009081526005602052604090205490565b620002d062000632366004620032e5565b6200142d565b620002d06200064936600462002e81565b62001647565b620003156200066036600462002d77565b60046020526000908152604090205481565b620002d062001672565b6200031560085481565b620002d0620006973660046200333b565b620016e7565b62000315600c5481565b6200031560035481565b620002d0620006c236600462002d77565b62001b0e565b620002d0620006d936600462003452565b62001bb6565b620006ee858585858562001c6e565b5050505050565b6200070b620007048362003508565b8262001dc8565b505050565b60006001600160e01b03198216637965db0b60e01b14806200074257506301ffc9a760e01b6001600160e01b03198316145b92915050565b6002546001600160a01b03610100909104163314620007845760405162461bcd60e51b81526004016200077b90620035be565b60405180910390fd5b620007926154604362003609565b600a556009805460ff191660019081179091556040519081527fbbf3175be78181756a72588a6463759700f26c5b967f1c4dd1256c89014f7713906020015b60405180910390a1565b60026000541415620008015760405162461bcd60e51b81526004016200077b9062003624565b60026000556200081360025460ff1690565b15620008335760405162461bcd60e51b81526004016200077b906200365b565b6200084083838362001e34565b5050600160005550565b3330146200089b5760405162461bcd60e51b815260206004820152601f60248201527f43616e206f6e6c7920626520696e766f6b656420627920636f6e74726163740060448201526064016200077b565b6200070b6001600160a01b038416838362001fba565b60008051602062004b6b833981519152620008cd81336200201f565b600d805460ff191683151590811790915560405160ff909116151581527f9ee2ea41e442ea1e1a96800f14b5669d13c2968015c99d7af0e7d8fc5d0a23dd9060200160405180910390a15050565b600082815260016020819052604090912001546200093a81336200201f565b6200070b83836200208e565b600260005414156200096c5760405162461bcd60e51b81526004016200077b9062003624565b60026000818155838152600b6020908152604091829020825160608101845281546001600160a01b03908116825260018301541692810183905293015491830191909152331462000a135760405162461bcd60e51b815260206004820152602a60248201527f43616e206f6e6c792062652072656465656d656420627920696e74656e646564604482015269081c9958da5c1a595b9d60b21b60648201526084016200077b565b6000838152600b602052604090206002015462000a7d5760405162461bcd60e51b815260206004820152602160248201527f566f756368657220686173206265656e2072656465656d656420616c726561646044820152607960f81b60648201526084016200077b565b6000838152600b602052604080822060020191909155810151815162000840916001600160a01b0390911690849062001fba565b6001600160a01b038116331462000b235760405162461bcd60e51b815260206004820152602f60248201527f416363657373436f6e74726f6c3a2063616e206f6e6c792072656e6f756e636560448201526e103937b632b9903337b91039b2b63360891b60648201526084016200077b565b62000b2f8282620020fc565b5050565b6002600054141562000b595760405162461bcd60e51b81526004016200077b9062003624565b600260005562000b6b60025460ff1690565b1562000b8b5760405162461bcd60e51b81526004016200077b906200365b565b600d5460ff1662000bb15762000bb160008051602062004b8b833981519152336200201f565b8060c00151431062000bd65760405163bcf37c2560e01b815260040160405180910390fd5b61010081015160e08201516000908152600560205260409020541062000c335761010081015160e082015160009081526005602052604090819020549051629427e960e11b8152600481019290925260248201526044016200077b565b62000c4085858562002166565b60035462000c7962000c528762003508565b7f000000000000000000000000000000000000000000000000000000000000000062001dc8565b1462000c985760405163723a340360e01b815260040160405180910390fd5b6020810151518151511462000cc057604051634298a95160e11b815260040160405180910390fd5b8060600151518160400151511462000ceb57604051634829247960e01b815260040160405180910390fd5b60007f0000000000000000000000000000000000000000000000000000000000000000681b1bd9da58d0d85b1b60ba1b836000015184602001518560400151866060015187608001518860a001518960c001518a60e001518b610100015160405160200162000d659b9a999897969594939291906200375a565b60405160208183030381529060405280519060200120905062000d8e8686868460085462001c6e565b5061010081015160e08201516000908152600560205260408120919091555b81515181101562000e315762000e1c82608001518360000151838151811062000dda5762000dda6200380a565b60200260200101518460200151848151811062000dfb5762000dfb6200380a565b60200260200101516001600160a01b031662001fba9092919063ffffffff16565b8062000e288162003820565b91505062000dad565b50600062000e4882608001518360a00151620021bf565b905060005b82604001515181101562000eaf5762000e9a848460400151838151811062000e795762000e796200380a565b60200260200101518560600151848151811062000dfb5762000dfb6200380a565b8062000ea68162003820565b91505062000e4d565b5060075462000ec090600162003609565b600781905560e08301516101008401516040517f7c2bb24f8e1b3725cb613d7f11ef97d9745cc97a0e40f730621c052d684077a19362000f059392918691906200383e565b60405180910390a15050600160005550505050565b6002546001600160a01b0361010090910416331462000f4d5760405162461bcd60e51b81526004016200077b90620035be565b62000f576200220a565b565b6002600054141562000f7f5760405162461bcd60e51b81526004016200077b9062003624565b600260005562000f9160025460ff1690565b1562000fb15760405162461bcd60e51b81526004016200077b906200365b565b62000840836001600160a01b0384168362001e34565b6002546001600160a01b0361010090910416331462000ffa5760405162461bcd60e51b81526004016200077b90620035be565b62000f5760006200229b565b60008051602062004b6b8339815191526200102281336200201f565b6200103d60008051602062004b6b833981519152836200091b565b62000b2f60008051602062004b6b8339815191523362001647565b6002546001600160a01b036101009091041633146200108b5760405162461bcd60e51b81526004016200077b90620035be565b62000f57620022f5565b60009182526001602090815260408084206001600160a01b0393909316845291905290205460ff1690565b60026000541415620010e65760405162461bcd60e51b81526004016200077b9062003624565b6002600055620010f860025460ff1690565b15620011185760405162461bcd60e51b81526004016200077b906200365b565b600d5460ff166200113e576200113e60008051602062004b8b833981519152336200201f565b826040013584604001351162001177576040805163e0e8edf360e01b81528186013560048201529084013560248201526044016200077b565b6200118a6040840135620f424062003609565b84604001351115620011bf576040805163e0e8edf360e01b81528186013560048201529084013560248201526044016200077b565b620011ce602085018562003870565b9050620011dc858062003870565b9050141580620011f75750620011f3848062003870565b1590505b15620012165760405163c01ba0ab60e01b815260040160405180910390fd5b6200122383838362002166565b6000805b62001236602087018762003870565b90508110156200129e576200124f602087018762003870565b828181106200126257620012626200380a565b905060200201358262001276919062003609565b915060085482111562001289576200129e565b80620012958162003820565b91505062001227565b506008548111620012d05760085460405162bfb6ab60e01b81526200077b918391600401918252602082015260400190565b600354620012e262000c528662003508565b14620013015760405163723a340360e01b815260040160405180910390fd5b60006200131262000c528762003508565b9050620013258585858460085462001c6e565b6003819055604086013560065560006200134660a088016080890162002d77565b6001600160a01b031614158015620013615750606086013515155b156200139457620013943360608801356200138360a08a0160808b0162002d77565b6001600160a01b0316919062001fba565b600754620013a490600162003609565b60078190556040870135907f76d08978c024a4bf8cbb30c67fd78fcaa1827cbc533e4e175f36d07e64ccf96a906060890135620013e860a08b0160808c0162002d77565b620013f48b8062003870565b6200140360208e018e62003870565b60405162001418979695949392919062003933565b60405180910390a25050600160005550505050565b6002546001600160a01b03610100909104163314620014605760405162461bcd60e51b81526004016200077b90620035be565b60095460ff161515600114620014b95760405162461bcd60e51b815260206004820152601960248201527f4d6967726174696f6e20686173206e6f7420737461727465640000000000000060448201526064016200077b565b600a546200150a5760405162461bcd60e51b815260206004820152601f60248201527f4d6967726174696f6e206865696768742063616e6e6f74206265207a65726f0060448201526064016200077b565b600a544310156200155e5760405162461bcd60e51b815260206004820152601c60248201527f4d6967726174696f6e206973206e6f7420616c6c6f776564207965740000000060448201526064016200077b565b615460600a5462001570919062003609565b431115620015c15760405162461bcd60e51b815260206004820152601b60248201527f4d6967726174696f6e2074696d6520686173206578636565646564000000000060448201526064016200077b565b80156200162b57604051635fd130a960e01b81526001600160a01b038481166004830152851690635fd130a990602401600060405180830381600087803b1580156200160c57600080fd5b505af115801562001621573d6000803e3d6000fd5b5050505062001641565b620016416001600160a01b038516848462001fba565b50505050565b600082815260016020819052604090912001546200166681336200201f565b6200070b8383620020fc565b6002546001600160a01b03610100909104163314620016a55760405162461bcd60e51b81526004016200077b90620035be565b6000600a8190556009805460ff191690556040519081527fbbf3175be78181756a72588a6463759700f26c5b967f1c4dd1256c89014f771390602001620007d1565b600260005414156200170d5760405162461bcd60e51b81526004016200077b9062003624565b60026000556200171f60025460ff1690565b156200173f5760405162461bcd60e51b81526004016200077b906200365b565b600d5460ff1662001765576200176560008051602062004b8b833981519152336200201f565b6001600160a01b0382166000908152600460205260409020548311620017c5576001600160a01b03821660009081526004602081905260409182902054915163f7f920ad60e01b815290810185905260248101919091526044016200077b565b6001600160a01b038216600090815260046020526040902054620017ed90620f424062003609565b83111562001835576001600160a01b03821660009081526004602081905260409182902054915163f7f920ad60e01b815290810185905260248101919091526044016200077b565b80431062001856576040516308b9266360e11b815260040160405180910390fd5b6200186387878762002166565b6003546200187562000c528962003508565b14620018945760405163723a340360e01b815260040160405180910390fd5b620018a3602085018562003870565b9050620018b1858062003870565b9050141580620018de5750620018cb604085018562003870565b9050620018d9858062003870565b905014155b15620018fd5760405163c1f97e3560e01b815260040160405180910390fd5b620019a18787877f00000000000000000000000000000000000000000000000000000000000000006f0e8e4c2dce6c2c6e8d2dedc84c2e8c6d60831b620019458a8062003870565b6200195460208d018d62003870565b6200196360408f018f62003870565b8e8e8e604051602001620019829b9a9998979695949392919062003986565b6040516020818303038152906040528051906020012060085462001c6e565b6001600160a01b0382166000908152600460205260408120849055805b620019ca868062003870565b905081101562001a8b5762001a3e84620019e8602089018962003870565b84818110620019fb57620019fb6200380a565b905060200201602081019062001a12919062002d77565b62001a1e898062003870565b8581811062001a315762001a316200380a565b9050602002013562002351565b62001a4d604087018762003870565b8281811062001a605762001a606200380a565b905060200201358262001a74919062003609565b91508062001a828162003820565b915050620019be565b5062001aaa8362001aa3608088016060890162002d77565b8362002351565b5060075462001abb90600162003609565b60078190556040519081526001600160a01b0383169084907f02c7e81975f8edb86e2a0c038b7b86a49c744236abf0f6177ff5afc6986ab7089060200160405180910390a3505060016000555050505050565b6002546001600160a01b0361010090910416331462001b415760405162461bcd60e51b81526004016200077b90620035be565b6001600160a01b03811662001ba85760405162461bcd60e51b815260206004820152602660248201527f4f776e61626c653a206e6577206f776e657220697320746865207a65726f206160448201526564647265737360d01b60648201526084016200077b565b62001bb3816200229b565b50565b600030868686868660405162001bcc9062002c1c565b62001bdd9695949392919062003a2d565b604051809103906000f08015801562001bfa573d6000803e3d6000fd5b509050600754600162001c0e919062003609565b60078190556040516001600160a01b038316917f82fe3a4fa49c6382d0c085746698ddbbafe6c2bf61285b19410644b5b26287c79162001c5c918c918c918c918c918c918c918c9162003a80565b60405180910390a25050505050505050565b6000805b62001c7e878062003870565b905081101562001d945785858281811062001c9d5762001c9d6200380a565b62001cb5926020606090920201908101915062003add565b60ff161562001d7f5762001d1a62001cce888062003870565b8381811062001ce15762001ce16200380a565b905060200201602081019062001cf8919062002d77565b8588888581811062001d0e5762001d0e6200380a565b9050606002016200243e565b62001d3857604051638baa579f60e01b815260040160405180910390fd5b62001d47602088018862003870565b8281811062001d5a5762001d5a6200380a565b905060200201358262001d6e919062003609565b91508282111562001d7f5762001d94565b8062001d8b8162003820565b91505062001c72565b5081811162001dc05760405162bfb6ab60e01b815260048101829052602481018390526044016200077b565b505050505050565b6000806918da1958dadc1bda5b9d60b21b60001b90506000838286604001518760000151886020015189606001518a6080015160405160200162001e13979695949392919062003afb565b60408051808303601f19018152919052805160209091012095945050505050565b6040516370a0823160e01b81523060048201526000906001600160a01b038516906370a0823190602401602060405180830381865afa15801562001e7c573d6000803e3d6000fd5b505050506040513d601f19601f8201168201806040525081019062001ea2919062003b5b565b905062001ebb6001600160a01b038516333085620024d3565b6040516370a0823160e01b81523060048201526000906001600160a01b038616906370a0823190602401602060405180830381865afa15801562001f03573d6000803e3d6000fd5b505050506040513d601f19601f8201168201806040525081019062001f29919062003b5b565b905081811162001f4c576040516321739d9b60e01b815260040160405180910390fd5b60075462001f5c90600162003609565b60075583336001600160a01b0387167fd7767894d73c589daeca9643f445f03d7be61aad2950c117e7cbff4176fca7e462001f98868662003b75565b6007546040805192835260208301919091520160405180910390a45050505050565b6040516001600160a01b0383166024820152604481018290526200070b90849063a9059cbb60e01b906064015b60408051601f198184030181529190526020810180516001600160e01b03166001600160e01b0319909316929092179091526200250d565b6200202b828262001095565b62000b2f5762002046816001600160a01b03166014620025e6565b62002053836020620025e6565b6040516020016200206692919062003b8f565b60408051601f198184030181529082905262461bcd60e51b82526200077b9160040162003c08565b6200209a828262001095565b62000b2f5760008281526001602081815260408084206001600160a01b0386168086529252808420805460ff19169093179092559051339285917f2f8788117e7eff1d82e926ec794901d17c78024a50270940304540a733656f0d9190a45050565b62002108828262001095565b1562000b2f5760008281526001602090815260408083206001600160a01b0385168085529252808320805460ff1916905551339285917ff6391f5c32d9c69d2a47ea670b442974b53935d1edc7fd64eb21e047a839171b9190a45050565b62002175602084018462003870565b905062002183848062003870565b9050141580620021a05750806200219b848062003870565b905014155b156200070b5760405163c6617b7b60e01b815260040160405180910390fd5b60606200220383836040518060400160405280601e81526020017f416464726573733a206c6f772d6c6576656c2063616c6c206661696c656400008152506200279f565b9392505050565b60025460ff16620022555760405162461bcd60e51b815260206004820152601460248201527314185d5cd8589b194e881b9bdd081c185d5cd95960621b60448201526064016200077b565b6002805460ff191690557f5db9ee0a495bf2e6ff9c91a7834c1ba4fdd244a5e8aa4e537bd38aeae4b073aa335b6040516001600160a01b039091168152602001620007d1565b600280546001600160a01b03838116610100818102610100600160a81b031985161790945560405193909204169182907f8be0079c531659141344cd1fd0a4f28419497f9722a3daafe3b4186f6b6457e090600090a35050565b60025460ff16156200231b5760405162461bcd60e51b81526004016200077b906200365b565b6002805460ff191660011790557f62e78cea01bee320cd4e420270b5ea74000d11b0c9f74754ebdbfc544b05a258620022823390565b604051632140db0560e01b81526001600160a01b03808516600483015283166024820152604481018290523090632140db0590606401600060405180830381600087803b158015620023a257600080fd5b505af1925050508015620023b4575060015b6200070b57604080516060810182526001600160a01b0380861682528481166020808401918252838501868152600c80546000908152600b90935295909120935184549084166001600160a01b031991821617855591516001808601805492909516919093161790925590516002909201919091559054620024369162003609565b600c55505050565b6040517f19457468657265756d205369676e6564204d6573736167653a0a3332000000006020820152603c81018390526000908190605c0160408051601f1981840301815291905280516020918201209150620024b5908290620024a59086018662003add565b85602001358660400135620027b8565b6001600160a01b0316856001600160a01b0316149150509392505050565b6040516001600160a01b0380851660248301528316604482015260648101829052620016419085906323b872dd60e01b9060840162001fe7565b600062002564826040518060400160405280602081526020017f5361666545524332303a206c6f772d6c6576656c2063616c6c206661696c6564815250856001600160a01b03166200279f9092919063ffffffff16565b8051909150156200070b578080602001905181019062002585919062003c1d565b6200070b5760405162461bcd60e51b815260206004820152602a60248201527f5361666545524332303a204552433230206f7065726174696f6e20646964206e6044820152691bdd081cdd58d8d9595960b21b60648201526084016200077b565b60606000620025f783600262003c3d565b6200260490600262003609565b6001600160401b038111156200261e576200261e62002eb0565b6040519080825280601f01601f19166020018201604052801562002649576020820181803683370190505b509050600360fc1b816000815181106200266757620026676200380a565b60200101906001600160f81b031916908160001a905350600f60fb1b816001815181106200269957620026996200380a565b60200101906001600160f81b031916908160001a9053506000620026bf84600262003c3d565b620026cc90600162003609565b90505b60018111156200274e576f181899199a1a9b1b9c1cb0b131b232b360811b85600f16601081106200270457620027046200380a565b1a60f81b8282815181106200271d576200271d6200380a565b60200101906001600160f81b031916908160001a90535060049490941c93620027468162003c5f565b9050620026cf565b508315620022035760405162461bcd60e51b815260206004820181905260248201527f537472696e67733a20686578206c656e67746820696e73756666696369656e7460448201526064016200077b565b6060620027b08484600085620027e4565b949350505050565b6000806000620027cb8787878762002916565b91509150620027da8162002a0b565b5095945050505050565b606082471015620028475760405162461bcd60e51b815260206004820152602660248201527f416464726573733a20696e73756666696369656e742062616c616e636520666f6044820152651c8818d85b1b60d21b60648201526084016200077b565b843b620028975760405162461bcd60e51b815260206004820152601d60248201527f416464726573733a2063616c6c20746f206e6f6e2d636f6e747261637400000060448201526064016200077b565b600080866001600160a01b03168587604051620028b5919062003c79565b60006040518083038185875af1925050503d8060008114620028f4576040519150601f19603f3d011682016040523d82523d6000602084013e620028f9565b606091505b50915091506200290b82828662002bde565b979650505050505050565b6000807f7fffffffffffffffffffffffffffffff5d576e7357a4501ddfe92f46681b20a08311156200294f575060009050600362002a02565b8460ff16601b141580156200296857508460ff16601c14155b156200297b575060009050600462002a02565b6040805160008082526020820180845289905260ff881692820192909252606081018690526080810185905260019060a0016020604051602081039080840390855afa158015620029d0573d6000803e3d6000fd5b5050604051601f1901519150506001600160a01b038116620029fb5760006001925092505062002a02565b9150600090505b94509492505050565b600081600481111562002a225762002a2262003c97565b141562002a2c5750565b600181600481111562002a435762002a4362003c97565b141562002a935760405162461bcd60e51b815260206004820152601860248201527f45434453413a20696e76616c6964207369676e6174757265000000000000000060448201526064016200077b565b600281600481111562002aaa5762002aaa62003c97565b141562002afa5760405162461bcd60e51b815260206004820152601f60248201527f45434453413a20696e76616c6964207369676e6174757265206c656e6774680060448201526064016200077b565b600381600481111562002b115762002b1162003c97565b141562002b6c5760405162461bcd60e51b815260206004820152602260248201527f45434453413a20696e76616c6964207369676e6174757265202773272076616c604482015261756560f01b60648201526084016200077b565b600481600481111562002b835762002b8362003c97565b141562001bb35760405162461bcd60e51b815260206004820152602260248201527f45434453413a20696e76616c6964207369676e6174757265202776272076616c604482015261756560f01b60648201526084016200077b565b6060831562002bef57508162002203565b82511562002c005782518084602001fd5b8160405162461bcd60e51b81526004016200077b919062003c08565b610ebd8062003cae83390190565b600060a0828403121562002c3d57600080fd5b50919050565b60008083601f84011262002c5657600080fd5b5081356001600160401b0381111562002c6e57600080fd5b60208301915083602060608302850101111562002c8a57600080fd5b9250929050565b60008060008060006080868803121562002caa57600080fd5b85356001600160401b038082111562002cc257600080fd5b62002cd089838a0162002c2a565b9650602088013591508082111562002ce757600080fd5b5062002cf68882890162002c43565b9699909850959660408101359660609091013595509350505050565b6000806040838503121562002d2657600080fd5b82356001600160401b0381111562002d3d57600080fd5b62002d4b8582860162002c2a565b95602094909401359450505050565b80356001600160a01b038116811462002d7257600080fd5b919050565b60006020828403121562002d8a57600080fd5b620022038262002d5a565b60006020828403121562002da857600080fd5b81356001600160e01b0319811681146200220357600080fd5b60008060006060848603121562002dd757600080fd5b62002de28462002d5a565b95602085013595506040909401359392505050565b60008060006060848603121562002e0d57600080fd5b62002e188462002d5a565b925062002e286020850162002d5a565b9150604084013590509250925092565b801515811462001bb357600080fd5b60006020828403121562002e5a57600080fd5b8135620022038162002e38565b60006020828403121562002e7a57600080fd5b5035919050565b6000806040838503121562002e9557600080fd5b8235915062002ea76020840162002d5a565b90509250929050565b634e487b7160e01b600052604160045260246000fd5b60405161012081016001600160401b038111828210171562002eec5762002eec62002eb0565b60405290565b604051601f8201601f191681016001600160401b038111828210171562002f1d5762002f1d62002eb0565b604052919050565b60006001600160401b0382111562002f415762002f4162002eb0565b5060051b60200190565b600082601f83011262002f5d57600080fd5b8135602062002f7662002f708362002f25565b62002ef2565b82815260059290921b8401810191818101908684111562002f9657600080fd5b8286015b8481101562002fb3578035835291830191830162002f9a565b509695505050505050565b600082601f83011262002fd057600080fd5b8135602062002fe362002f708362002f25565b82815260059290921b840181019181810190868411156200300357600080fd5b8286015b8481101562002fb3576200301b8162002d5a565b835291830191830162003007565b600082601f8301126200303b57600080fd5b81356001600160401b0381111562003057576200305762002eb0565b6200306c601f8201601f191660200162002ef2565b8181528460208386010111156200308257600080fd5b816020850160208301376000918101602001919091529392505050565b600080600080600060808688031215620030b857600080fd5b85356001600160401b0380821115620030d057600080fd5b620030de89838a0162002c2a565b96506020880135915080821115620030f557600080fd5b6200310389838a0162002c43565b9096509450849150620031196040890162002d5a565b935060608801359150808211156200313057600080fd5b90870190610120828a0312156200314657600080fd5b6200315062002ec6565b8235828111156200316057600080fd5b6200316e8b82860162002f4b565b8252506020830135828111156200318457600080fd5b620031928b82860162002fbe565b602083015250604083013582811115620031ab57600080fd5b620031b98b82860162002f4b565b604083015250606083013582811115620031d257600080fd5b620031e08b82860162002fbe565b606083015250620031f46080840162002d5a565b608082015260a0830135828111156200320c57600080fd5b6200321a8b82860162003029565b60a08301525060c083013560c082015260e083013560e0820152610100915081830135828201528093505050509295509295909350565b600080600080606085870312156200326857600080fd5b84356001600160401b03808211156200328057600080fd5b6200328e8883890162002c2a565b95506020870135915080821115620032a557600080fd5b620032b38883890162002c2a565b94506040870135915080821115620032ca57600080fd5b50620032d98782880162002c43565b95989497509550505050565b60008060008060808587031215620032fc57600080fd5b620033078562002d5a565b9350620033176020860162002d5a565b9250604085013591506060850135620033308162002e38565b939692955090935050565b600080600080600080600060c0888a0312156200335757600080fd5b87356001600160401b03808211156200336f57600080fd5b6200337d8b838c0162002c2a565b985060208a01359150808211156200339457600080fd5b620033a28b838c0162002c43565b909850965060408a0135915080821115620033bc57600080fd5b5088016080818b031215620033d057600080fd5b935060608801359250620033e76080890162002d5a565b915060a0880135905092959891949750929550565b60008083601f8401126200340f57600080fd5b5081356001600160401b038111156200342757600080fd5b60208301915083602082850101111562002c8a57600080fd5b803560ff8116811462002d7257600080fd5b60008060008060008060006080888a0312156200346e57600080fd5b87356001600160401b03808211156200348657600080fd5b620034948b838c01620033fc565b909950975060208a0135915080821115620034ae57600080fd5b620034bc8b838c01620033fc565b909750955060408a0135915080821115620034d657600080fd5b50620034e58a828b01620033fc565b9094509250620034fa90506060890162003440565b905092959891949750929550565b600060a082360312156200351b57600080fd5b60405160a081016001600160401b03828210818311171562003541576200354162002eb0565b8160405284359150808211156200355757600080fd5b620035653683870162002fbe565b835260208501359150808211156200357c57600080fd5b506200358b3682860162002f4b565b6020830152506040830135604082015260608301356060820152620035b36080840162002d5a565b608082015292915050565b6020808252818101527f4f776e61626c653a2063616c6c6572206973206e6f7420746865206f776e6572604082015260600190565b634e487b7160e01b600052601160045260246000fd5b600082198211156200361f576200361f620035f3565b500190565b6020808252601f908201527f5265656e7472616e637947756172643a207265656e7472616e742063616c6c00604082015260600190565b60208082526010908201526f14185d5cd8589b194e881c185d5cd95960821b604082015260600190565b600081518084526020808501945080840160005b83811015620036b75781518752958201959082019060010162003699565b509495945050505050565b600081518084526020808501945080840160005b83811015620036b75781516001600160a01b031687529582019590820190600101620036d6565b60005b838110156200371a57818101518382015260200162003700565b83811115620016415750506000910152565b6000815180845262003746816020860160208601620036fd565b601f01601f19169290920160200192915050565b60006101608d83528c60208401528060408401526200377c8184018d62003685565b9050828103606084015262003792818c620036c2565b90508281036080840152620037a8818b62003685565b905082810360a0840152620037be818a620036c2565b6001600160a01b03891660c085015283810360e08501529050620037e381886200372c565b61010084019690965250506101208101929092526101409091015298975050505050505050565b634e487b7160e01b600052603260045260246000fd5b6000600019821415620038375762003837620035f3565b5060010190565b8481528360208201526080604082015260006200385f60808301856200372c565b905082606083015295945050505050565b6000808335601e198436030181126200388857600080fd5b8301803591506001600160401b03821115620038a357600080fd5b6020019150600581901b360382131562002c8a57600080fd5b8183526000602080850194508260005b85811015620036b7576001600160a01b03620038e88362002d5a565b1687529582019590820190600101620038cc565b81835260006001600160fb1b038311156200391657600080fd5b8260051b8083602087013760009401602001938452509192915050565b87815286602082015260018060a01b038616604082015260a0606082015260006200396360a083018688620038bc565b828103608084015262003978818587620038fc565b9a9950505050505050505050565b60006101008d83528c6020840152806040840152620039a98184018c8e620038fc565b90508281036060840152620039c0818a8c620038bc565b90508281036080840152620039d781888a620038fc565b60a084019690965250506001600160a01b039290921660c083015260e09091015298975050505050505050565b81835281816020850137506000828201602090810191909152601f909101601f19169091010190565b6001600160a01b038716815260806020820181905260009062003a54908301878962003a04565b828103604084015262003a6981868862003a04565b91505060ff83166060830152979650505050505050565b60a08152600062003a9660a083018a8c62003a04565b828103602084015262003aab81898b62003a04565b9050828103604084015262003ac281878962003a04565b60ff9590951660608401525050608001529695505050505050565b60006020828403121562003af057600080fd5b620022038262003440565b87815286602082015285604082015260e06060820152600062003b2260e0830187620036c2565b828103608084015262003b36818762003685565b60a084019590955250506001600160a01b039190911660c09091015295945050505050565b60006020828403121562003b6e57600080fd5b5051919050565b60008282101562003b8a5762003b8a620035f3565b500390565b7f416363657373436f6e74726f6c3a206163636f756e742000000000000000000081526000835162003bc9816017850160208801620036fd565b7001034b99036b4b9b9b4b733903937b6329607d1b601791840191820152835162003bfc816028840160208801620036fd565b01602801949350505050565b6020815260006200220360208301846200372c565b60006020828403121562003c3057600080fd5b8151620022038162002e38565b600081600019048311821515161562003c5a5762003c5a620035f3565b500290565b60008162003c715762003c71620035f3565b506000190190565b6000825162003c8d818460208701620036fd565b9190910192915050565b634e487b7160e01b600052602160045260246000fdfe60806040526000196005553480156200001757600080fd5b5060405162000ebd38038062000ebd8339810160408190526200003a9162000311565b825183908390620000539060039060208501906200019e565b508051620000699060049060208401906200019e565b5050600680546001600160a81b031916600160a01b60ff8516026001600160a01b031916176001600160a01b03871617905550600554620000ac908590620000b6565b5050505062000419565b6001600160a01b038216620001115760405162461bcd60e51b815260206004820152601f60248201527f45524332303a206d696e7420746f20746865207a65726f206164647265737300604482015260640160405180910390fd5b8060026000828254620001259190620003b5565b90915550506001600160a01b0382166000908152602081905260408120805483929062000154908490620003b5565b90915550506040518181526001600160a01b038316906000907fddf252ad1be2c89b69c2b068fc378daa952ba7f163c4a11628f55a4df523b3ef9060200160405180910390a35050565b828054620001ac90620003dc565b90600052602060002090601f016020900481019282620001d057600085556200021b565b82601f10620001eb57805160ff19168380011785556200021b565b828001600101855582156200021b579182015b828111156200021b578251825591602001919060010190620001fe565b50620002299291506200022d565b5090565b5b808211156200022957600081556001016200022e565b634e487b7160e01b600052604160045260246000fd5b600082601f8301126200026c57600080fd5b81516001600160401b038082111562000289576200028962000244565b604051601f8301601f19908116603f01168101908282118183101715620002b457620002b462000244565b81604052838152602092508683858801011115620002d157600080fd5b600091505b83821015620002f55785820183015181830184015290820190620002d6565b83821115620003075760008385830101525b9695505050505050565b600080600080608085870312156200032857600080fd5b84516001600160a01b03811681146200034057600080fd5b60208601519094506001600160401b03808211156200035e57600080fd5b6200036c888389016200025a565b945060408701519150808211156200038357600080fd5b5062000392878288016200025a565b925050606085015160ff81168114620003aa57600080fd5b939692955090935050565b60008219821115620003d757634e487b7160e01b600052601160045260246000fd5b500190565b600181811c90821680620003f157607f821691505b602082108114156200041357634e487b7160e01b600052602260045260246000fd5b50919050565b610a9480620004296000396000f3fe608060405234801561001057600080fd5b50600436106100cf5760003560e01c80635fd130a91161008c578063a457c2d711610066578063a457c2d7146101b6578063a9059cbb146101c9578063cbf0a64e146101dc578063dd62ed3e1461020757600080fd5b80635fd130a91461017057806370a082311461018557806395d89b41146101ae57600080fd5b806306fdde03146100d4578063095ea7b3146100f257806318160ddd1461011557806323b872dd1461012b578063313ce5671461013e578063395093511461015d575b600080fd5b6100dc610240565b6040516100e991906108b2565b60405180910390f35b610105610100366004610923565b6102d2565b60405190151581526020016100e9565b61011d6102e8565b6040519081526020016100e9565b61010561013936600461094d565b610315565b600654600160a01b900460ff1660405160ff90911681526020016100e9565b61010561016b366004610923565b6103c4565b61018361017e366004610989565b610400565b005b61011d610193366004610989565b6001600160a01b031660009081526020819052604090205490565b6100dc61050a565b6101056101c4366004610923565b610519565b6101056101d7366004610923565b6105b2565b6006546101ef906001600160a01b031681565b6040516001600160a01b0390911681526020016100e9565b61011d6102153660046109ab565b6001600160a01b03918216600090815260016020908152604080832093909416825291909152205490565b60606003805461024f906109de565b80601f016020809104026020016040519081016040528092919081815260200182805461027b906109de565b80156102c85780601f1061029d576101008083540402835291602001916102c8565b820191906000526020600020905b8154815290600101906020018083116102ab57829003601f168201915b5050505050905090565b60006102df3384846105bf565b50600192915050565b6006546001600160a01b03166000908152602081905260408120546005546103109190610a2f565b905090565b60006103228484846106e3565b6001600160a01b0384166000908152600160209081526040808320338452909152902054828110156103ac5760405162461bcd60e51b815260206004820152602860248201527f45524332303a207472616e7366657220616d6f756e74206578636565647320616044820152676c6c6f77616e636560c01b60648201526084015b60405180910390fd5b6103b985338584036105bf565b506001949350505050565b3360008181526001602090815260408083206001600160a01b038716845290915281205490916102df9185906103fb908690610a46565b6105bf565b6006546001600160a01b031633146104485760405162461bcd60e51b815260206004820152600b60248201526a4e6f74206772617669747960a81b60448201526064016103a3565b6001600160a01b038116600090815260208190526040902054156104c15760405162461bcd60e51b815260206004820152602a60248201527f6e6577206772617669747920616464726573732062616c616e63652073686f756044820152696c64206265207a65726f60b01b60648201526084016103a3565b6006546001600160a01b03166000818152602081905260409020546104e8919083906106e3565b600680546001600160a01b0319166001600160a01b0392909216919091179055565b60606004805461024f906109de565b3360009081526001602090815260408083206001600160a01b03861684529091528120548281101561059b5760405162461bcd60e51b815260206004820152602560248201527f45524332303a2064656372656173656420616c6c6f77616e63652062656c6f77604482015264207a65726f60d81b60648201526084016103a3565b6105a833858584036105bf565b5060019392505050565b60006102df3384846106e3565b6001600160a01b0383166106215760405162461bcd60e51b8152602060048201526024808201527f45524332303a20617070726f76652066726f6d20746865207a65726f206164646044820152637265737360e01b60648201526084016103a3565b6001600160a01b0382166106825760405162461bcd60e51b815260206004820152602260248201527f45524332303a20617070726f766520746f20746865207a65726f206164647265604482015261737360f01b60648201526084016103a3565b6001600160a01b0383811660008181526001602090815260408083209487168084529482529182902085905590518481527f8c5be1e5ebec7d5bd14f71427d1e84f3dd0314c0f7b2291e5b200ac8c7c3b925910160405180910390a3505050565b6001600160a01b0383166107475760405162461bcd60e51b815260206004820152602560248201527f45524332303a207472616e736665722066726f6d20746865207a65726f206164604482015264647265737360d81b60648201526084016103a3565b6001600160a01b0382166107a95760405162461bcd60e51b815260206004820152602360248201527f45524332303a207472616e7366657220746f20746865207a65726f206164647260448201526265737360e81b60648201526084016103a3565b6001600160a01b038316600090815260208190526040902054818110156108215760405162461bcd60e51b815260206004820152602660248201527f45524332303a207472616e7366657220616d6f756e7420657863656564732062604482015265616c616e636560d01b60648201526084016103a3565b6001600160a01b03808516600090815260208190526040808220858503905591851681529081208054849290610858908490610a46565b92505081905550826001600160a01b0316846001600160a01b03167fddf252ad1be2c89b69c2b068fc378daa952ba7f163c4a11628f55a4df523b3ef846040516108a491815260200190565b60405180910390a350505050565b600060208083528351808285015260005b818110156108df578581018301518582016040015282016108c3565b818111156108f1576000604083870101525b50601f01601f1916929092016040019392505050565b80356001600160a01b038116811461091e57600080fd5b919050565b6000806040838503121561093657600080fd5b61093f83610907565b946020939093013593505050565b60008060006060848603121561096257600080fd5b61096b84610907565b925061097960208501610907565b9150604084013590509250925092565b60006020828403121561099b57600080fd5b6109a482610907565b9392505050565b600080604083850312156109be57600080fd5b6109c783610907565b91506109d560208401610907565b90509250929050565b600181811c908216806109f257607f821691505b60208210811415610a1357634e487b7160e01b600052602260045260246000fd5b50919050565b634e487b7160e01b600052601160045260246000fd5b600082821015610a4157610a41610a19565b500390565b60008219821115610a5957610a59610a19565b50019056fea264697066735822122083383fbbc6bb7c86a375162e66e476bd424baa862cbc8f3e8adc5f61b9906a7264736f6c634300080a0033ccf9e25d3bce9c1bcd10416f7a98ff7d9539d84f1e0c0455671a54a1708050f2ab4f864e5201b0fde9b5ee3e4cf96384802b0ffdfcf7f9de4699ce21a30afc4fa26469706673582212205d2a9879be4953256e8a353d950057ea47926e13978f2c87bc46b46f60349e8d64736f6c634300080a0033ccf9e25d3bce9c1bcd10416f7a98ff7d9539d84f1e0c0455671a54a1708050f2",
  "linkReferences": {},
  "deployedLinkReferences": {}
}